:100000000C9434000C946A000C946A000C946A00FE
:100010000C946A000C946A000C946A000C946A00B8
:100020000C946A000C946A000C946A000C946A00A8
:100030000C946A000C946A000C946A000C946A0098
:100040000C946A000C946A000C946A000C946A0088
:100050000C946A000C946A000C946A000C946A0078
:100060000C946A000C946A0011241FBECFEFD8E0F4
:10007000DEBFCDBF0E9440000C943E00F894FFCF3D
:100080000E9450000E946300853511F0853721F4ED
:1000900082E50E945C00F6CF86E40E945C00F2CF0D
:1000A0001092C50087E68093C40086E08093C2006A
:0800B00088E18093C10008956E
:0E00B8009091C00095FFFCCF8093C600089584
:0E00C6008091C0008823E4F78091C600089561
:0400D4000C94000088
:00000001FF
