:100000000C943A000C94B3010C94B3010C94B3011A
:100010000C94B3010C94B3010C94B3010C94B30190
:100020000C94B3010C94B3010C94B3010C94B30180
:100030000C94B3010C94B3010C94B3010C94B30170
:100040000C94B3010C94B3010C94B3010C94B30160
:100050000C94B3010C94B3010C94B3010C94B30150
:100060000C94B3010C94B3010100010500036A0173
:100070000501098011241FBECFEFD8E0DEBFCDBF40
:10008000E8E6F0E040E017C0B591A59135912591E3
:10009000059107FD0CC095918591EF01F92FE82F8F
:1000A00005900D92A217B307D9F7FE0104C01D9267
:1000B000A217B307E1F7E437F40731F70E946801AC
:0800C0000C946200F894FFCFDC
:1000C800CF93DF9300D000D01F92CDB7DEB7FE01EB
:1000D800319685E0DF011D928A95E9F784B1806247
:1000E80084B985B1806285B9BFEF21EE84E0B15053
:1000F80020408040E1F700C0000085B18F7D85B9C0
:100108009FEFA0EEB0E09150A040B040E1F700C0F2
:10011800000085B1806285B984B18F7D84B925EDF1
:100128002A95F1F700001D9967C08FE391E00197C8
:10013800F1F700C000001D9B61C0AFE3B1E011976B
:10014800F1F700C0000060E031C00196893C9105DC
:1001580018F056C080E090E01D9BF7CFB0EABA9542
:10016800F1F71D9B0CC047E050E0421B510981E0AC
:1001780090E002C0880F991F4A95E2F7382B80E07B
:1001880090E004C00196893C9105E0F51D99FACFED
:100198002F5F02C030E020E02830E0F2E1E0F0E03C
:1001A800EC0FFD1FE60FF11D30836F5F653090F394
:1001B80084B1806284B985B1806285B92FEF81EE00
:1001C80094E0215080409040E1F700C00000298170
:1001D8009A814B813C81822F890F840F830F5D8127
:1001E800851312C04093060130930501209308013E
:1001F8009093070180E009C08FEF07C08FEF05C01B
:100208008FEF03C08FEF01C08FEF0F900F900F900B
:0A0218000F900F90DF91CF91089531
:100222004091080187E64802212D11242595259544
:10023200542F550F550B322F351B330F932F990F18
:10024200990F390F431B342F251B209308012802D5
:10025200912D11249595959527FD9395990F492FE9
:10026200440F440F940F291B922F609106016802DC
:10027200212D112425952595762F770F770B422F67
:10028200471B440F542F550F550F450F641B271B57
:10029200209306012802812D11248595859527FD3D
:1002A2008395880F582F550F550F850F281B822FC6
:1002B20020910001322B30930301922B9093040181
:0E02C200822B80930201262B209301010895C8
:1002D0000E94A0010E9464008F3FE1F00E94110182
:1002E000809104010E94AC01809103010E94AC0145
:1002F0008BE30E94AC01809102010E94AC018091CD
:1003000001010E94AC018AE00E94AC018DE00E94D4
:10031000AC010CC085E40E94AC0188E30E94AC01F2
:100320008AE00E94AC018DE00E94AC012FEF87EAC9
:1003300091E6215080409040E1F700C00000CACF14
:100340001092C50087E68093C40086E08093C200C7
:0803500088E18093C1000895CB
:0E0358009091C00095FFFCCF8093C6000895E1
:040366000C940000F3
:01036A003062
:01036B000190
:01036C00018F
:01036D00018E
:01036E00018D
:00000001FF
