:100000000C9437000C9459010C9459010C9459012B
:100010000C9459010C9459010C9459010C945901F8
:100020000C9459010C9459010C9459010C945901E8
:100030000C9459010C9459010C9459010C945901D8
:100040000C9459010C9459010C9459010C945901C8
:100050000C9459010C9459010C9459010C945901B8
:100060000C9459010C9459010100010280001124E3
:100070001FBECFEFD8E0DEBFCDBFE8E6F0E040E046
:1000800017C0B591A59135912591059107FD0CC03B
:1000900095918591EF01F92FE82F05900D92A21708
:1000A000B307D9F7FE0104C01D92A217B307E1F709
:1000B000ED36F40731F70E9426010C945F00F894A6
:0200C000FFCF70
:1000C2001F93CF93DF9300D000D01F92CDB7DEB73E
:1000D200FC019E012F5F3F4F85E0D9011D928A9559
:1000E200E9F784B1816084B985B1816085B9BFEFD8
:1000F20021EE84E0B15020408040E1F700C00000D2
:1001020085B18E7F85B99FEFA0EEB0E09150A040FF
:10011200B040E1F700C0000085B1816085B994B1BB
:100122009E7F94B925ED2A95F1F7000095B19E7F47
:1001320095B98FEF90EEA0E081509040A040E1F79A
:1001420000C0000095B1916095B994B19E7F94B9B9
:10015200B5EDBA95F1F70000189965C08FE391E00B
:100162000197F1F700C00000189B5FC0AFE3B1E058
:100172001197F1F700C0000010E034C02F5F3F4F2D
:10018200293C310518F053C020E030E0189BF6CF2F
:10019200B0EABA95F1F7189B0CC047E050E0491B52
:1001A200510921E030E002C0220F331F4A95E2F7E5
:1001B200822B20E030E005C02F5F3F4F293C310504
:1001C200C0F51899F9CF9F5F02C080E090E09830A7
:1001D200D8F221E030E02C0F3D1F210F311DD90153
:1001E2008C931F5F153088F384B1816084B985B127
:1001F200816085B9BFEF21EE84E0B150204080409C
:10020200E1F700C0000089819A813B812C81890F2E
:10021200830F820F9D8189130EC030838981DB0198
:100222008C9380E009C08FEF07C08FEF05C08FEF7E
:1002320003C08FEF01C08FEF0F900F900F900F90C0
:0A0242000F90DF91CF911F910895F6
:10024C000E94460160E071E081E091E00E94610053
:10025C008F3F49F0809101010E9452018091000171
:10026C000E94520103C080E00E9452012FEF83EDE7
:10027C0090E3215080409040E1F700C00000E2CFB5
:10028C001092C50087E68093C40086E08093C2007C
:08029C0088E18093C100089580
:0E02A4009091C00095FFFCCF8093C600089596
:0402B2000C940000A8
:00000001FF
