:100000000C9437000C9454010C9454010C9454013A
:100010000C9454010C9454010C9454010C9454010C
:100020000C9454010C9454010C9454010C945401FC
:100030000C9454010C9454010C9454010C945401EC
:100040000C9454010C9454010C9454010C945401DC
:100050000C9454010C9454010C9454010C945401CC
:100060000C9454010C9454010100010480001124EB
:100070001FBECFEFD8E0DEBFCDBFE8E6F0E040E046
:1000800017C0B591A59135912591059107FD0CC03B
:1000900095918591EF01F92FE82F05900D92A21708
:1000A000B307D9F7FE0104C01D92A217B307E1F709
:1000B000ED36F40731F70E940E010C945F00F894BE
:0200C000FFCF70
:1000C200CF93DF9300D000D01F92CDB7DEB7FE01F1
:1000D200319685E0DF011D928A95E9F784B180624D
:1000E20084B985B1806285B9BFEF21EE84E0B15059
:1000F20020408040E1F700C0000085B18F7D85B9C6
:100102009FEFA0EEB0E09150A040B040E1F700C0F8
:10011200000085B1806285B984B18F7D84B925EDF7
:100122002A95F1F700001D9967C08FE391E00197CE
:10013200F1F700C000001D9B61C0AFE3B1E0119771
:10014200F1F700C0000060E031C00196893C9105E2
:1001520018F056C080E090E01D9BF7CFB0EABA9548
:10016200F1F71D9B0CC047E050E0421B510981E0B2
:1001720090E002C0880F991F4A95E2F7382B80E081
:1001820090E004C00196893C9105E0F51D99FACFF3
:100192002F5F02C030E020E02830E0F2E1E0F0E042
:1001A200EC0FFD1FE60FF11D30836F5F653090F39A
:1001B20084B1806284B985B1806285B92FEF81EE06
:1001C20094E0215080409040E1F700C00000298176
:1001D2009A814B813C81822F890F840F830F5D812D
:1001E200851312C040930101309300012093030153
:1001F2009093020180E009C08FEF07C08FEF05C026
:100202008FEF03C08FEF01C08FEF0F900F900F9011
:0A0212000F900F90DF91CF91089537
:10021C000E9441010E9461008F3FB9F08091010161
:10022C000E944D01809100010E944D018BE30E94C0
:10023C004D01809103010E944D01809102010E94A9
:10024C004D018DE00E944D010CC085E40E944D01D2
:10025C0088E30E944D018AE00E944D018DE00E94CE
:10026C004D012FEF87EA91E6215080409040E1F755
:06027C0000C00000CFCF1E
:100282001092C50087E68093C40086E08093C20086
:0802920088E18093C10008958A
:0E029A009091C00095FFFCCF8093C6000895A0
:0402A8000C940000B2
:00000001FF
