:100000000C943A000C9434020C9434020C94340294
:100010000C9434020C9434020C9434020C94340288
:100020000C9434020C9434020C9434020C94340278
:100030000C9434020C9434020C9434020C94340268
:100040000C9434020C9434020C9434020C94340258
:100050000C9434020C9434020C9434020C94340248
:100060000C9434020C9434020100011800046C0159
:1000700018011C8011241FBECFEFD8E0DEBFCDBF1A
:10008000E8E6F0E040E017C0B591A59135912591E3
:10009000059107FD0CC095918591EF01F92FE82F8F
:1000A00005900D92A217B307D9F7FE0104C01D9267
:1000B000A217B307E1F7E437F40731F70E94BD0157
:0800C0000C946200F894FFCFDC
:1000C800CF93DF9300D000D01F92CDB7DEB7FE01EB
:1000D800319685E0DF011D928A95E9F784B1806247
:1000E80084B985B1806285B9BFEF21EE84E0B15053
:1000F80020408040E1F700C0000085B18F7D85B9C0
:100108009FEFA0EEB0E09150A040B040E1F700C0F2
:10011800000085B1806285B984B18F7D84B925EDF1
:100128002A95F1F700001D9967C08FE391E00197C8
:10013800F1F700C000001D9B61C0AFE3B1E011976B
:10014800F1F700C0000060E031C00196893C9105DC
:1001580018F056C080E090E01D9BF7CFB0EABA9542
:10016800F1F71D9B0CC047E050E0421B510981E0AC
:1001780090E002C0880F991F4A95E2F7382B80E07B
:1001880090E004C00196893C9105E0F51D99FACFED
:100198002F5F02C030E020E02830E0F2E1E0F0E03C
:1001A800EC0FFD1FE60FF11D30836F5F653090F394
:1001B80084B1806284B985B1806285B92FEF81EE00
:1001C80094E0215080409040E1F700C00000298170
:1001D8009A814B813C81822F890F840F830F5D8127
:1001E800851312C0409319013093180120931B0105
:1001F80090931A0180E009C08FEF07C08FEF05C008
:100208008FEF03C08FEF01C08FEF0F900F900F900B
:0A0218000F900F90DF91CF91089531
:1002220030911B0187E63802912D11249595959501
:10023200432F440F440BE92FE41BEE0F2E2F220F06
:10024200220FE20F3E1BE32F941B90931B01980297
:10025200612D11246595659597FD6395660F262F8F
:10026200220F220F620F961B692F30911A0138025A
:10027200912D112495959595432F440F440B792F79
:10028200741B770F272F220F220F720F371B732F2A
:10029200941B90931A019802212D112425952595DE
:1002A20097FD2395220F322F330F330F230F921B0B
:1002B200292F409119014802312D11243595359588
:1002C200F42FFF0FFF0B532F5F1B550F952F990F25
:1002D200990F590F451B542F3F1B309319013802B8
:1002E200912D11249595959537FD9395990F492F49
:1002F200440F440F940F391B932FA0911801A802A9
:10030200312D112435953595BA2FBB0FBB0B432FD9
:100312004B1B440FF42FFF0FFF0F4F0FA41B4A2F4D
:100322003B1B309318013802812D11248595859548
:1003320037FD8395880FF82FFF0FFF0F8F0F381BA4
:10034200832F30910F01E32BE0931601632B60930F
:100352001701732B70931401232B20931501932BF8
:1003620090931301532B50931201432B409310018E
:08037200832B80931101089513
:10037A00CF93DF93CDB7DEB727970FB6F894DEBFDA
:10038A000FBECDBF0E941A020E942D02853511F0C0
:10039A008537D1F70E9464008F3F31F10E94110125
:1003AA00809117018D83809116018E838EE28F834F
:1003BA00909113019983909112019A838B83809172
:1003CA0011018C83CE0105960E9404028BE30E94E0
:1003DA002602CE0101960E9404028AE00E942602A9
:1003EA008DE00E942602D0CF80E091E00E940402B4
:0E03FA008AE00E9426028DE00E942602C5CFF6
:100408000F931F93CF93DF938C01C0E0D0E003C01C
:100418000E9426022196F801EC0FFD1F80818111B0
:0C042800F7CFDF91CF911F910F91089545
:100434001092C50087E68093C40086E08093C200D2
:0804440088E18093C1000895D6
:0E044C009091C00095FFFCCF8093C6000895EC
:0E045A008091C0008823E4F78091C6000895C9
:040468000C940000F0
:0F046C0072656164696E67206572726F7221003C
:01047B003050
:01047C00017E
:01047D00017D
:01047E00017C
:01047F00017B
:01048000017A
:010481000179
:010482000178
:010483000177
:00000001FF
